:100000000C9463000C948B000C948B000C948B006C
:100010000C948B000C948B000C948B000C948B0034
:100020000C948B000C948B000C948B000C948B0024
:100030000C948B000C948B000C948B000C948B0014
:100040000C9441050C948B000C9429040C9403042B
:100050000C948B000C948B000C948B000C948B00F4
:100060000C9430060C948B00000000002400270044
:100070002A0000000000250028002B0000000000DE
:1000800023002600290004040404040404040202DA
:100090000202020203030303030301020408102007
:1000A0004080010204081020010204081020000012
:1000B0000008000201000003040700000000000027
:1000C00000007F10A00A11241FBECFEFD8E0DEBFD2
:1000D000CDBF13E0A0E0B1E0ECEDF7E202C0059087
:1000E0000D92AC3CB107D9F725E0ACECB3E001C010
:1000F0001D92A63CB207E1F710E0C2E6D0E004C0D2
:100100002197FE010E945A11C136D107C9F70E94FA
:10011000B80A0C94E1130C9400000895CF92DF927A
:10012000EF92FF920F931F93CF93DF936C017A01AD
:100130008B01C0E0D0E0CE15DF0589F0D8016D91CC
:100140008D01D601ED91FC910190F081E02DC60169
:100150000995892B11F47E0102C02196ECCFC701CD
:10016000DF91CF911F910F91FF90EF90DF90CF9093
:100170000895FC01918D828D981761F0828DDF01C9
:10018000A80FB11D5D968C91928D9F5F9F73928F8A
:1001900090E008958FEF9FEF0895FC01918D828D7F
:1001A000981731F0828DE80FF11D858D90E008954C
:1001B0008FEF9FEF0895FC01918D228D892F90E0A4
:1001C000805C9F4F821B91098F73992708958AE75E
:1001D00094E00E94DB0021E0892B09F420E0822FCB
:1001E0000895FC01848DDF01A80FB11DA35ABF4FF4
:1001F0002C91848D90E001968F739927848FA68926
:10020000B7892C93A089B1898C9180648C93938D4C
:10021000848D981306C00288F389E02D80818F7D3C
:1002200080830895EF92FF920F931F93CF93DF93F4
:10023000EC0181E0888F9B8D8C8D981305C0E88937
:10024000F989808185FD24C0F62E0B8D10E00F5FAB
:100250001F4F0F731127E02E8C8DE8120CC00FB6C4
:1002600007FCFACFE889F989808185FFF5CFCE01B7
:100270000E94F100F1CF8B8DFE01E80FF11DE35AD2
:10028000FF4FF0820B8FEA89FB898081806207C073
:10029000EE89FF896083E889F989808180648083A1
:1002A00081E090E0DF91CF911F910F91FF90EF904F
:1002B0000895CF93DF93EC01888D8823C9F0EA89F4
:1002C000FB89808185FD05C0A889B9898C9186FD4F
:1002D0000FC00FB607FCF5CF808185FFF2CFA8894C
:1002E000B9898C9185FFEDCFCE010E94F100E7CF57
:1002F000DF91CF91089580E090E0892B29F00E9452
:10030000E70081110C9400000895833081F028F4F7
:10031000813099F08230A1F008958730A9F08830BB
:10032000B9F08430D1F4809180008F7D03C080913A
:1003300080008F7780938000089584B58F7702C006
:1003400084B58F7D84BD08958091B0008F7703C000
:100350008091B0008F7D8093B00008953FB7F894EE
:100360008091610490916204A0916304B09164044F
:1003700026B5A89B05C02F3F19F00196A11DB11D00
:100380003FBFBA2FA92F982F8827820F911DA11D3B
:10039000B11DBC01CD0142E0660F771F881F991F78
:1003A0004A95D1F7089585ED8093BC008091BC00FB
:1003B00084FDFCCF1092670408954091F103262F2D
:1003C00030E0240F311D21323105DCF42091670427
:1003D0002430C9F4FC0180E090E0861758F4309195
:1003E000F1032191DC01A153BC4FA30FB11D2C934C
:1003F0000196F3CF8091F103680F6093F10380E0E1
:10040000089581E0089582E00895089581E090E0E4
:1004100030916B0420916A04321710F480E090E070
:10042000919581959109089580916B0490916A044A
:10043000891730F48F5F80936B0480E090E008951B
:100440008FEF9FEF089580916A0490E020916B04F4
:10045000821B91090895CF92DF92EF92FF920F9342
:100460001F93CF93DF937C01262F972F8A018091D2
:100470003A04882391F0C62FD72F6E01C40ED51EE3
:10048000CC15DD0571F06991D701ED91FC910190DA
:10049000F081E02DC7010995F3CF642F822F0E94D0
:1004A000DD01C801DF91CF911F910F91FF90EF9077
:1004B000DF90CF900895CF93DF931F92CDB7DEB733
:1004C000698320913A042223D1F0209168042032DC
:1004D00040F021E030E0FC013383228380E090E0B3
:1004E00015C080916904E82FF0E0E55CFB4F99812D
:1004F00090838F5F809369048093680405C061E0F6
:10050000CE0101960E94DD0181E090E00F90DF9125
:10051000CF9108950E945713CF93DF93EC01888108
:100520009981009711F00E94F511198218821D829D
:100530001C821B821A82DF91CF9108950F931F9323
:10054000CF93DF93EC0188819981009729F02A816C
:100550003B812617370788F48B016F5F7F4F0E941E
:100560008D12009761F0998388831B830A832C8105
:100570003D81232B11F4FC01108281E001C080E059
:10058000DF91CF911F910F910895EF92FF920F93FA
:100590001F93CF93DF93EC017B018A01BA010E9484
:1005A0009E02811104C0CE010E948C0207C01D83EF
:1005B0000C83B701888199810E946E13CE01DF916F
:1005C000CF911F910F91FF90EF900895FC0124812E
:1005D0003581232B31F421E061157105A1F0FB0178
:1005E00008C0FC01808191816115710531F421E021
:1005F000FC018081882339F005C00E94651321E049
:10060000892B09F020E0822F0895EF92FF920F933B
:100610001F93CF93DF93FC01248135816115710510
:1006200011F480E019C041155105A9F07B01EC01DE
:100630008A01020F131FB8010E949E02882389F3CA
:10064000288139818C819D81B701820F931F0E947F
:100650006E131D830C8381E0DF91CF911F910F9169
:10066000FF90EF900895CF93DF93EC016115710532
:1006700061F0FB0101900020E9F73197AF01461BC3
:10068000570B0E940503811103C0CE010E948C020A
:10069000CE01DF91CF910895CF93DF93EC01FB0161
:1006A00044815581608171810E940503811103C0DD
:1006B000CE010E948C02CE01DF91CF910895CF939D
:1006C000DF93EC016115710559F0FB0101900020E9
:1006D000E9F73197AF01461B570B0E94C50202C0D4
:1006E0000E948C02CE01DF91CF910895CF93DF93CA
:1006F000EC01FB018617970761F06081718161153C
:10070000710529F0448155810E94C50202C00E94F2
:100710008C02CE01DF91CF9108950F931F93CF9359
:10072000DF938C01EB01FC01808191810097B1F096
:10073000688179816115710579F0428153812C813D
:100740003D814217530740F00E946E138C819D81BA
:10075000F8019583848313C00E94F51188819981E3
:10076000F801918380838A819B81938382838C812A
:100770009D8195838483198218821B821A821D822F
:100780001C82DF91CF911F910F910895FC01808110
:1007900091810C94F511FC01118210821382128256
:1007A000158214826115710551F0FB010190002042
:1007B000E9F73197AF01461B570B0C94C50208951A
:1007C0006115710579F0FB0101900020E9F731977F
:1007D000AF01461B570BDC01ED91FC910280F381C8
:1007E000E02D099480E090E00895DC01ED91FC910A
:1007F000DB0114964D915C9115976D917C9102806F
:10080000F381E02D09941F920F920FB60F921124DD
:100810002F933F934F935F936F937F938F939F9308
:10082000AF93BF93EF93FF938AE794E00E94F100A8
:10083000FF91EF91BF91AF919F918F917F916F91B8
:100840005F914F913F912F910F900FBE0F901F908E
:1008500018951F920F920FB60F9211242F938F931A
:100860009F93EF93FF93E0918A04F0918B04808132
:10087000E0919004F091910482FD12C090818091EA
:1008800093048F5F8F7320919404821751F0E0914D
:100890009304F0E0E658FB4F958F8093930401C0DA
:1008A0008081FF91EF919F918F912F910F900FBEBB
:1008B0000F901F901895CF93DF93282F30E0F90108
:1008C000E255FF4F8491F901E656FF4FD491F901AB
:1008D000EA57FF4FC491CC2391F081110E9485010A
:1008E000EC2FF0E0EE0FFF1FE458FF4FA591B491FD
:1008F000EC91ED2381E090E021F480E002C080E003
:1009000090E0DF91CF910895862F0C945B041F93A4
:10091000CF93DF93282F30E0F901E255FF4F849108
:10092000F901E656FF4FD491F901EA57FF4FC49100
:10093000CC23C9F0162F81110E948501EC2FF0E025
:10094000EE0FFF1FEE58FF4FA591B4918FB7F894AB
:10095000111105C09C91ED2FE095E92302C0EC91A7
:10096000ED2BEC938FBFDF91CF911F910895862FD0
:10097000642F0C948704CF93DF9390E0FC01E6563C
:10098000FF4F2491FC01EA57FF4F8491882361F1C6
:1009900090E0880F991FFC01E859FF4FC591D49151
:1009A000FC01EE58FF4FA591B491611109C09FB7AA
:1009B000F8948881209582238883EC912E230BC0A4
:1009C000623061F49FB7F8943881822F8095832339
:1009D0008883EC912E2B2C939FBF06C08FB7F89481
:1009E000E8812E2B28838FBFDF91CF910895862F2A
:1009F000642F0C94BB048F929F92AF92BF92CF92C0
:100A0000DF92EF92FF926B017C010E94AE014B01DD
:100A10005C01C114D104E104F104F1F00E94AE01C3
:100A2000DC01CB0188199909AA09BB09883E9340CA
:100A3000A105B10570F321E0C21AD108E108F1085F
:100A400088EE880E83E0981EA11CB11CC114D1044D
:100A5000E104F10419F7DDCFFF90EF90DF90CF9024
:100A6000BF90AF909F908F9008952FB7F8946091AA
:100A70005D0470915E0480915F04909160042FBFCB
:100A800008951F920F920FB60F9211242F933F9348
:100A90008F939F93AF93BF9380915D0490915E0479
:100AA000A0915F04B091600430915C0423E0230FB7
:100AB0002D3720F40196A11DB11D05C026E8230F96
:100AC0000296A11DB11D20935C0480935D04909358
:100AD0005E04A0935F04B0936004809161049091E0
:100AE0006204A0916304B09164040196A11DB11D3C
:100AF0008093610490936204A0936304B0936404B0
:100B0000BF91AF919F918F913F912F910F900FBE09
:100B10000F901F901895CF93FC01C48121E0209382
:100B20003A04C0935B0410926904109268048385B0
:100B3000682B87E195E00E945B0280916804813216
:100B400008F046C0909167049111FCCF92E0909319
:100B5000670491E0909366049FEF9093390410929C
:100B6000380480933704ABE3B4E027E134E0F901C3
:100B70009E2F921B981718F49D919193F9CF109284
:100B8000160480911604CC0FC82BC09316048091D4
:100B90006504813061F4109265048091160480939D
:100BA000BB008091BC0083FDF8CF85EC01C085EED1
:100BB0008093BC00809167048230E1F38091390416
:100BC0008F3F31F080913904803211F080913904E7
:100BD000109269041092680410923A04CF9108951B
:100BE0000F931F93CF938C01C62F0E948B056C2F00
:100BF0006460C8010E948B056C2F6B7FC8010E9446
:100C00008B0583EC90E00197F1F7CF911F910F9145
:100C10000895FF920F931F93CF93DF931F92CDB749
:100C2000DEB78C01F62E962F907F692F642BC801BA
:100C300049830E94F00580E1F89EB00111244981AA
:100C4000642BC8010F90DF91CF911F910F91FF90FE
:100C50000C94F00541E00E94090681E090E00895BF
:100C60001F920F920FB60F9211242F933F934F9321
:100C70005F936F937F938F939F93AF93BF93EF9304
:100C8000FF938091B900887F803609F49CC068F595
:100C9000883209F45BC090F4803109F454C038F410
:100CA000882309F4F6C0883009F44DC0F6C08831B5
:100CB00009F44CC0803209F45DC0EFC0803409F4FF
:100CC00068C048F4803309F455C0883309F0E5C0A2
:100CD00080933904D8C0803509F44FC0883509F4B1
:100CE0005DC0883409F0D9C0D6C0883909F4C7C0BE
:100CF000A8F4883709F467C038F4883609F463C06B
:100D0000803709F460C0C9C0883809F4B8C0803998
:100D100009F45FC0803809F0C0C05BC0803B09F4B3
:100D200086C038F4803A09F466C0883A09F47FC076
:100D3000B4C0803C09F4A7C0883C09F4A4C0883B37
:100D400009F48AC0AAC08091160410C0909138049A
:100D500080913704981770F5E091380481E08E0F88
:100D600080933804F0E0E95EFB4F80818093BB0004
:100D700085EC86C0809339048EC0E091380481E010
:100D80008E0F809338048091BB00F0E0E95EFB4F4A
:100D9000808390913804809137046EC0E0913804CC
:100DA00081E08E0F809338048091BB00F0E0E95E13
:100DB000FB4F80838091660481116DC081E0809338
:100DC000650484EA61C083E080936704109215048F
:100DD000CFCF80911504803208F051C0E091150406
:100DE00081E08E0F809315048091BB00F0E0EB5002
:100DF000FC4F8083BDCF85EC8093BC0010926704CC
:100E000080911504803230F4E0911504F0E0EB504D
:100E1000FC4F10826091150470E0E091F303F091B3
:100E2000F40385EF93E009951092150436C084E031
:100E3000809367041092F2031092F103E091EF03A4
:100E4000F091F00309958091F103811105C081E0D3
:100E50008093F1031092CF03E091F20381E08E0FB3
:100E60008093F203F0E0E153FC4F80818093BB005C
:100E70009091F2038091F103981708F479CF85E8F7
:100E80008093BC000AC085EC8093BC00109267047C
:100E900004C0109239040E94D301FF91EF91BF91D9
:100EA000AF919F918F917F916F915F914F913F9102
:100EB0002F910F900FBE0F901F901895CF93C62FB4
:100EC000682F8AE00E9487046C2F8AE0CF910C94EF
:100ED0008704CF92DF92EF92FF920F931F93CF93ED
:100EE000DF936C017B018A01E9010E94090AB601C6
:100EF00083E295E00E94F50381E00E94140AB701A5
:100F000083E295E00E94F50382E00E94140AB80192
:100F100083E295E00E94F50383E00E94140ABE017B
:100F200083E295E00E94F50380E0DF91CF911F916D
:100F30000F91FF90EF90DF90CF900C94140AEF92F6
:100F4000FF920F931F93CF93DF937C018B01EA01F4
:100F50000E94090AB70183E295E00E94F50381E04F
:100F60000E94140AB80183E295E00E94F50382E032
:100F70000E94140ABE0183E295E00E94F50380E01E
:100F8000DF91CF911F910F91FF90EF900C94140A75
:100F9000CF93DF93CDB7DEB768970FB6F894DEBF77
:100FA0000FBECDBF91E09093CE03863639F564E64F
:100FB00071E0CE010D960E94CB0364E771E0CE0193
:100FC00007960E94CB0368E871E0CE0101960E946B
:100FD000CB03AE01435F5F4FBE01695F7F4FCE0120
:100FE00001960E949F07CE0101960E94C603CE0182
:100FF00007960E94C603CE010D9635C08437B1F521
:1010000064E671E0CE0143960E94CB036DE971E086
:10101000CE010D960E94CB0360EB71E0CE010796E6
:101020000E94CB036DEB71E0CE0101960E94CB03D1
:101030009E012D5E3F4FAE01435F5F4FBE01695F72
:101040007F4FCE0101960E946907CE0101960E9452
:10105000C603CE0107960E94C603CE010D960E94DC
:10106000C603CE0143960E94C60306C06DEC71E034
:101070008AE794E00E94E00380917104813379F063
:10108000823379F0833379F0843379F0853379F0E2
:10109000863379F0873379F0883379F010C081E0B6
:1010A0000DC082E00BC083E009C084E007C085E08A
:1010B00005C086E003C087E001C088E090E0689644
:1010C0000FB6F894DEBF0FBECDBFDF91CF9108956C
:1010D0000F931F93CF93DF93CDB7DEB768970FB60B
:1010E000F894DEBF0FBECDBF8C018091CD0381117E
:1010F00074C0663659F560E081E00E945E0767EED5
:1011000071E0CE010D960E94CB0364E771E0CE0141
:1011100007960E94CB0368E871E0CE0101960E9419
:10112000CB03AE01435F5F4FBE01695F7F4FCE01CE
:1011300001960E949F07CE0101960E94C603CE0130
:1011400007960E94C603CE010D9641C0643709F090
:1011500040C081E08093CE0361E08AE00E94870472
:1011600061E080E00E945E0767EE71E0CE01439689
:101170000E94CB036DE971E0CE010D960E94CB0376
:1011800060EB71E0CE0107960E94CB036DEB71E03E
:10119000CE0101960E94CB039E012D5E3F4FAE0112
:1011A000435F5F4FBE01695F7F4FCE0101960E9492
:1011B0006907CE0101960E94C603CE0107960E94E0
:1011C000C603CE010D960E94C603CE0143960E942F
:1011D000C60381E08093CD0306C06DEC71E08AE721
:1011E00094E00E94E00380917104813619F464E573
:1011F00073E022C0823619F467EF71E01DC08336B8
:1012000019F469EF71E018C0843619F462E672E0EF
:1012100013C0853619F462EC72E00EC0863619F4FC
:101220006BEF71E009C0873619F46DEF71E004C00F
:10123000883629F46AEC73E0C8010E94CB03C80128
:1012400068960FB6F894DEBF0FBECDBFDF91CF9189
:101250001F910F9108950F931F93CF93DF938C01EC
:10126000EB010E94090AB80183E295E00E94F503B0
:1012700081E00E94140ABE0183E295E00E94F5031A
:1012800080E0DF91CF911F910F910C94140ACF93BE
:10129000DF93CDB7DEB72C970FB6F894DEBF0FBE45
:1012A000CDBF90917004992309F486C0882309F476
:1012B0007AC0611181C080916C04811162C08091FB
:1012C000CC0381111FC06FEF71E0CE0107960E9421
:1012D000CB036FE072E0CE0101960E94CB03BE010A
:1012E000695F7F4FCE0101960E942B09CE010196C6
:1012F0000E94C603CE0107960E94C60381E0809338
:10130000CC0349C0109270041092CC0310926E046A
:101310001092CE0310926D0410926F046FE373E08D
:101320008CEB95E00E945F036AE172E08BE395E04D
:101330000E945F036AE172E085E395E00E945F032B
:101340008FEF9FEF9093030180930201909301012F
:101350008093000160E08AE00E94870460E08AE0F8
:101360000E94870460E08AE00E94870460E08AE0CF
:101370000E94870460E080E00E945E076DE172E0F9
:1013800006C010926C041092700465E272E08AE765
:1013900094E00E94E00364E170E080E090E00E944D
:1013A000FB0461E009C0662339F064E170E080E08D
:1013B00090E00E94FB0460E0862F2C960FB6F89414
:1013C000DEBF0FBECDBFDF91CF91089596E0899F1C
:1013D000D0011124A35BBA4F90967C936E935F97D4
:1013E00091E091969C9391979091B905E091BA05FF
:1013F000F091BB05992339F0309751F0811108C065
:101400008091690504C0309719F05C968C9109941D
:10141000089540E061E083E295E00E9409068BE3D5
:101420009FE10197F1F70895CF93DF93CDB7DEB732
:1014300028970FB6F894DEBF0FBECDBF98E0E2E26A
:10144000F1E0DE01119601900D929A95E1F79091ED
:101450002B05981710F48FEF890FFE013196E80FD6
:10146000F11DE80FF11D6081606840E083E295E0C6
:1014700028960FB6F894DEBF0FBECDBFDF91CF9197
:101480000C9409060F931F93CF93DF93C82FD62F89
:1014900086E0C89FF0011124E35BFA4F11A2878D0B
:1014A00090A181309105F1F01CF4892B49F043C0E3
:1014B00082309105A9F10397F1F560E070E034C046
:1014C0006623C9F161E070E08C2F0E94E6090E945A
:1014D00035056093A5057093A6058093A7059093A5
:1014E000A80529C00E9435050091A5051091A60503
:1014F0002091A7053091A805AB01BC01401B510B01
:10150000620B730B8091B7059091B805A0E0B0E035
:1015100084179507A607B70718F462E070E004C0C7
:10152000D11109C063E070E08C2FDF91CF911F9142
:101530000F910C94E609DF91CF911F910F910895BF
:101540008FE295E00E94C60385E395E00E94C60302
:101550008BE395E00E94C60381E495E00E94C603F8
:1015600087E495E00E94C6038CEB95E00C94C603DB
:10157000CF93DF93CDB7DEB7E6970FB6F894DEBF13
:101580000FBECDBF789484B5826084BD84B5816080
:1015900084BD85B5826085BD85B5816085BD80913E
:1015A0006E00816080936E001092810080918100B6
:1015B00082608093810080918100816080938100AE
:1015C000809180008160809380008091B100846070
:1015D0008093B1008091B00081608093B0008091D1
:1015E0007A00846080937A0080917A008260809390
:1015F0007A0080917A00816080937A0080917A00ED
:10160000806880937A001092C100E0918A04F09182
:101610008B0482E08083E0918604F091870410823D
:10162000E0918804F09189048FEC808310929204F9
:10163000E0918E04F0918F0486E08083E0918C0429
:10164000F0918D04808180618083E0918C04F09121
:101650008D04808188608083E0918C04F0918D04FA
:10166000808180688083E0918C04F0918D0480817A
:101670008F7D808361E08AE00E94BB0461E08AE0A4
:101680000E94BB0461E08AE00E94BB0461E08AE042
:101690000E94BB0461E08AE00E94BB0461E08AE032
:1016A0000E94BB0460E08BE00E94BB0460E08CE021
:1016B0000E94BB0460E08DE00E94BB0460E08AE011
:1016C0000E94870460E08AE00E94870460E08AE06C
:1016D0000E94870460E08AE00E94870460E08AE05C
:1016E0000E94870460E08AE00E94870410926B04E5
:1016F00010926A04109269041092680410926704B0
:1017000081E0809366041092650461E082E10E94AA
:10171000870461E083E10E9487048091B9008E7F95
:101720008093B9008091B9008D7F8093B90088E4DF
:101730008093B80085E48093BC00109228058091C6
:101740002D05823018F098E09093280580932B05A2
:1017500062E370E080E090E00E94FB0460912E055F
:1017600083E295E00E948B0568EE73E080E090E0F4
:101770000E94FB0460E383E295E00E94F0050BE425
:1017800016E4C8010197F1F760E383E295E00E9457
:10179000F005C8010197F1F760E383E295E00E944C
:1017A000F00583E592E00197F1F760E283E295E0CE
:1017B0000E94F00560912805606240E083E295E0B8
:1017C0000E94090684E08093290540E06CE083E2F2
:1017D00095E00E9409060E94090A82E080932A058A
:1017E00040E066E083E295E00E94090640E062E0A6
:1017F00083E295E00E9409068BE39FE10197F1F7F0
:1018000088E080932E0560E083E295E00E948B05DE
:1018100067E372E083E295E00E94E003412C512CE3
:10182000320143948AE794E00E94DB0018161906FF
:10183000C4F48AE794E00E94B90080937204843271
:1018400021F481E080936D040CC089831A8241E009
:1018500050E0BE016F5F7F4F8CEB95E00E94050367
:10186000E1CF80917004882331F061E08AE00E942A
:10187000870460E005C060E08AE00E94870461E0C0
:101880008AE00E94870481E08093B9050E943505B3
:101890000091A9051091AA052091AB053091AC05E6
:1018A000AB01BC01401B510B620B730B8091B50562
:1018B0009091B605A0E0B0E084179507A607B7079A
:1018C00008F00AC110E08091B305181760F4E091A8
:1018D000AF05F091B005E10FF11D62E080810E943B
:1018E000BB041F5FF0CF912C8091B405981608F0CF
:1018F00061C0E92CF12CE091B105F091B205EE0D3B
:10190000FF1D61E080810E94BB04E091B105F09170
:10191000B205EE0DFF1D60E080810E948704D301B7
:10192000C201092C04C0880F991FAA1FBB1F0A946B
:10193000D2F75C016C01C094D094812C8091B305E6
:10194000881608F5082D10E0E091AF05F091B0057C
:10195000E00FF11F80810E945B040C5F1F4F000F9E
:10196000111FF801E35BFA4F892B29F480819181E3
:101970008A299B2904C0808191818C219D2191839A
:1019800080838394DBCFE091B105F091B205EE0D39
:10199000FF1D61E080810E9487048091B1059091D4
:1019A000B205FC01EE0DFF1D60E080810E94BB04CA
:1019B00093949ACFE9E6F5E08FEF9FEF238134818E
:1019C000232B21F41082928381831582369625E0A1
:1019D000E53AF20799F7F12C96E0D92E8091B305FC
:1019E000F81608F053C0E12C0F2D10E0000F111F66
:1019F0000B5A1A4F2091B405E21608F045C0F801C1
:101A0000608171810E2C02C0769567950A94E2F789
:101A100061707727F29E900111242E0D311DE09107
:101A2000AD05F091AE05E20FF31FA081EDE4F5E006
:101A300080E0458D568D4217530711F461701AC02E
:101A40008F5F36968A30A9F7672BE1F0E9E6F5E07B
:101A500080E090E04081411110C0D89EF001D99EF5
:101A6000F00D1124E35BFA4FA48F368F258F10A25F
:101A7000178E61E00E94420A05C0019636968A30B0
:101A8000910541F7E394B6CFF394A8CF80E090E0BE
:101A900010E0FC01E35BFA4F21A1211111E0069651
:101AA0008C339105B1F70E9435056093A9057093B9
:101AB000AA058093AB059093AC05112369F0809142
:101AC0006E05882349F080916C0590916D05019712
:101AD00019F48091690503C01092B90580E08093E4
:101AE00071048BE00E945B0411E0892B09F410E083
:101AF000109379048CE00E945B0421E0892B09F4A7
:101B000020E0209378048DE00E945B0421E0892B83
:101B100009F420E02093770480917604882341F033
:101B200044E760917504812F0E94470980937504F2
:101B300044E660917404809178040E944709809380
:101B4000740443E660917304809177040E9447090E
:101B50008093730480917004882309F44EC08091AF
:101B60006F0481114AC069E472E08FE295E00E943F
:101B7000E602882359F066E6CE0101960E946808C5
:101B8000BE016F5F7F4F8BE395E0F0C16AE172E0C9
:101B90008BE395E00E94E60220910201309103015F
:101BA0008111D5C12F3FFFEF3F0709F0D0C186E675
:101BB0000E94C80790930301809302016AE172E0DA
:101BC0008BE395E00E94E602811117C0809102012B
:101BD00090910301019689F06AE172E085E395E056
:101BE0000E94E602811109C00091000110910101DB
:101BF0000F3FFFEF1F0709F0D7C180916D048823C5
:101C000009F405C16AE572E08CEB95E00E94E602FA
:101C10008823B1F06CEB75E08FE295E00E947603CB
:101C200010926C0481E0809376048093700464E6E3
:101C300072E0CE0101960E94CB0367E772E01DC0FF
:101C400069E872E08CEB95E00E94E602882339F1A6
:101C50006CEB75E08FE295E00E94760381E0809363
:101C60006C04809376048093700461E972E0CE0185
:101C700001960E94CB036FE972E0CE0143960E9469
:101C8000CB03BE016F5F7F4FCE0143960E942B09AD
:101C9000CE0143960E94C603CE010196AEC069E410
:101CA00072E08CEB95E00E94E602882351F06CEB29
:101CB00075E08FE295E00E94760381E080937004E6
:101CC0009EC062EB72E08CEB95E00E94E6028823F6
:101CD00021F181E0809370046BEB72E0CE010196FC
:101CE0000E94CB0364EC72E0CE0143960E94CB03CA
:101CF00069ED72E0CE0149960E94CB03AE014F5FC1
:101D00005F4FBE016D5E7F4FCE0149960E949F07D7
:101D1000CE0149960E94C603BBCF6BEE72E08CEBFE
:101D200095E00E94E602882309F43FC081E0809399
:101D3000700480936F0463EF72E0CE0101960E94FD
:101D4000CB0366E073E0CE0143960E94CB036AE1C9
:101D500073E0CE0149960E94CB0368E273E0CE01A6
:101D60004F960E94CB039E012F5F3F4FAE014D5E09
:101D70005F4FBE01675E7F4FCE014F960E9469079D
:101D8000CE014F960E94C603CE0149960E94C6031B
:101D9000CE0143960E94C603CE0101960E94C6035F
:101DA00060E081E00E945E072AC068E373E0CE0134
:101DB00001960E94CB036CEB75E0CE0101960E9468
:101DC0004C0365E372E00E9433031C8A1B8A1E8A5F
:101DD0001D8A188E1F8ABC01CE0143960E9476038D
:101DE000CE0101960E94C603BE016D5E7F4F8AE759
:101DF00094E00E94F503CE0143960E94C603109220
:101E00006D046FE373E08CEB95E00E945F038091BB
:101E10006F04882309F498C060E473E081E495E0DE
:101E20000E945F03FC0180819181892BB1F0809138
:101E30007104813609F053C164E573E0CE01019667
:101E40000E94CB03BE016F5F7F4F87E495E00E9445
:101E50008D03CE0101960E94C60360E473E087E41F
:101E600095E00E94E60281116FC064E573E087E4AB
:101E700095E00E94E602882319F062E473E020C036
:101E800067EF71E087E495E00E94E602882319F08D
:101E900068E473E015C069EF71E087E495E00E94A3
:101EA000E602882319F060E573E00AC062E672E09A
:101EB00087E495E00E94E602882331F066E573E04E
:101EC00081E495E00E945F036EE573E0CE01019628
:101ED0000E94CB0364EB73E0CE0149960E94CB03D2
:101EE00061E475E0CE0149960E944C031C8A1B8A6E
:101EF0001E8A1D8A188E1F8ABC01CE0143960E943D
:101F0000760361E773E0CE014F960E94CB03AE01EA
:101F10004F5F5F4FBE016D5E7F4FCE014F960E94B7
:101F20009F07CE014F960E94C603CE0143960E94A2
:101F3000C603CE0149960E94C603CE0101960E94B7
:101F4000C60381E080936E040E947B016BCC2F3F1F
:101F50003F4F99F0882389F064E7CE0101960E94F3
:101F60006808BE016F5F7F4F85E395E00E948D0397
:101F7000CE0101960E94C60321CE6AE172E085E39C
:101F800095E00E94E602811119CE809100019091A6
:101F90000101019609F012CE84E70E94C8079093D0
:101FA0000101809300010ACE64E873E0CE014396FC
:101FB0000E94CB0368E973E0CE0149960E94CB03EF
:101FC00018A21F8E1AA219A21CA21BA24AE0BE01CF
:101FD0006F5F7F4FC8010E947513BE016F5F7F4F17
:101FE000CE014F960E945F03809102019091030100
:101FF0001EA21DA218A61FA21AA619A64AE0BE017B
:102000006F5F7F4F0E947513BE016F5F7F4FCE01E0
:1020100085960E945F036BEA73E0CE018B960E9467
:10202000CB036BE375E0CE018B960E944C03BE019F
:102030006B5D7F4F0E944C0363EB73E00E943303A0
:1020400065E375E00E944C03BE01615E7F4F0E9414
:102050004C0366E373E00E9433031A8219821C82E8
:102060001B821E821D82BC01CE0101960E94760356
:1020700068EB73E0CE01C1960E94CB039E012D5EFA
:102080003F4FAE01475E5F4FBE016F5F7F4FCE0196
:10209000C1960E946907CE01C1960E94C603CE0177
:1020A00001960E94C603CE018B960E94C603CE0104
:1020B00085960E94C603CE014F960E94C603CE01AC
:1020C00049960E94C603CE0143960E94C60381E052
:1020D00080936E0461E08AE00E9487048ECD823690
:1020E00019F467EF71E0AACE833619F469EF71E055
:1020F000A5CE843609F0A6CE62E672E09FCECF93DD
:1021000010927D0410927C0488EE93E0A0E0B0E091
:1021100080937E0490937F04A0938004B093810405
:102120002EE231E030937B0420937A0425EC30E0FA
:10213000309387042093860424EC30E030938904A4
:102140002093880420EC30E030938B0420938A04A1
:1021500021EC30E030938D0420938C0422EC30E0AD
:1021600030938F0420938E0426EC30E0309391045A
:10217000209390041092930410929404109295046A
:102180001092960410921A051092190580931B055F
:1021900090931C05A0931D05B0931E058EE391E05E
:1021A00090931805809317056FE373E08CEB95E02F
:1021B0000E94CB0310924F051092530510925205C6
:1021C000109254058EE591E090934E0580934D0555
:1021D00080E090E0FC01E35BFA4F148E10A2178EB2
:1021E00011A206968C339105A9F788E091E09093AF
:1021F000B0058093AF0584E091E09093B2058093A1
:10220000B105C4E0C093B305C093B4058CE091E080
:102210009093AE058093AD058AE090E09093B6056B
:102220008093B50584EF91E09093B8058093B7054E
:102230001092BB051092BA051092A9051092AA053A
:102240001092AB051092AC051092B90560E473E0F2
:1022500087E495E00E94CB0360E473E081E495E0BD
:102260000E94CB036AE172E08BE395E00E94CB030E
:102270006AE172E085E395E00E94CB036FE373E0CF
:102280008FE295E00E94CB0310922605109225055F
:102290008EE491E0909324058093230587E2809358
:1022A000270584E180932C05C0932D0510922E05FF
:1022B000CF910895EE0FFF1F0590F491E02D099442
:1022C000CF93DF938230910510F482E090E0E091AB
:1022D000C405F091C50520E030E0C0E0D0E03097C3
:1022E00011F14081518148175907C0F0481759072B
:1022F00061F482819381209719F09B838A832BC09C
:102300009093C5058093C40526C02115310519F0A9
:102310004217530718F49A01BE01DF01EF01028052
:10232000F381E02DDCCF2115310509F1281B390B94
:102330002430310590F412968D919C91139761157C
:10234000710521F0FB019383828304C09093C5053E
:102350008093C405FD01329644C0FD01E20FF31FD6
:1023600081939193225031092D933C933AC020914F
:10237000C2053091C305232B41F420911E013091F9
:102380001F013093C3052093C20520911C01309199
:102390001D012115310541F42DB73EB740912001B3
:1023A00050912101241B350BE091C205F091C3052A
:1023B000E217F307A0F42E1B3F0B2817390778F01C
:1023C000AC014E5F5F4F2417350748F04E0F5F1F7B
:1023D0005093C3054093C2058193919302C0E0E0FE
:1023E000F0E0CF01DF91CF9108950F931F93CF932A
:1023F000DF93009709F48CC0FC013297138212829C
:102400000091C4051091C5050115110581F42081C5
:102410003181820F931F2091C2053091C305281787
:10242000390779F5F093C305E093C20571C0D8016F
:1024300040E050E0AE17BF0750F412962D913C914A
:102440001397AD012115310509F1D901F3CF9D0194
:10245000DA013383228360817181860F971F82178F
:10246000930769F4EC0128813981260F371F2E5F0D
:102470003F4F318320838A819B8193838283452BC5
:1024800029F4F093C505E093C40542C01396FC936C
:10249000EE931297ED01499159919E01240F351F3A
:1024A000E217F30771F480819181840F951F0296E2
:1024B00011969C938E938281938113969C938E9315
:1024C0001297E0E0F0E0D80112968D919C9113975D
:1024D000009719F0F8018C01F6CF8D919C9198012D
:1024E0002E5F3F4F820F931F2091C2053091C3058D
:1024F0002817390769F4309729F41092C50510920E
:10250000C40502C0138212821093C3050093C20552
:10251000DF91CF911F910F910895A0E0B0E0E3E922
:10252000F2E10C94AE13EC01009721F4CB010E9470
:102530006011B8C0FC01E60FF71F9C012250310961
:10254000E217F30708F4ACC0D9010D911C91119763
:1025500006171707B0F00530110508F49FC0C80131
:1025600004978617970708F499C002501109061BB3
:10257000170B019311936D937C93CF010E94F5117A
:102580008DC05B01A01AB10A4C01800E911EA09172
:10259000C405B091C50540E050E0E12CF12C109746
:1025A00009F44AC0A815B905D1F56D907C90119732
:1025B000630182E0C80ED11CCA14DB0480F1A301C0
:1025C0004A195B096A0182E0C80ED11C1296BC90C0
:1025D00012971396AC91B5E0CB16D10440F0B282BD
:1025E000A38351834083D9016D937C930AC00E5F0E
:1025F0001F4FC301800F911FF90191838083EB2D41
:10260000FA2FE114F10431F0D7011396FC93EE9305
:10261000129744C0F093C505E093C4053FC08D9167
:102620009C9111974817590708F4AC017D01129647
:102630000D90BC91A02DB3CF8091C2059091C305A0
:1026400088159905E1F446175707C8F480911C01D5
:1026500090911D01009741F48DB79EB740912001E4
:1026600050912101841B950BE817F907C8F4F093EA
:10267000C305E093C205F901718360830FC0CB01EC
:102680000E9460117C01009759F0A801BE010E94D0
:102690005C13CE010E94F511C70104C0CE0102C037
:1026A00080E090E0CDB7DEB7EEE00C94CA1381E095
:1026B00090E0F8940C94E113FB01DC0102C001905E
:1026C0000D9241505040D8F70895FB01DC018D91E7
:1026D000019080190110D9F3990B0895FB01DC01D9
:1026E00001900D920020E1F70895BB274A3031F4A4
:1026F000992322F4BDE2909581959F4F0C9481130C
:10270000BB27FB015527AA27880F991FAA1FA417CB
:1027100010F0A41B83955051B9F7A05DAA3308F0BF
:10272000A95DA193009779F7B111B1931192CB01F3
:102730000C949A13DC01FC01672F71917723E1F768
:10274000329704C07C916D9370836291AE17BF077E
:10275000C8F308952F923F924F925F926F927F92AB
:102760008F929F92AF92BF92CF92DF92EF92FF92A1
:102770000F931F93CF93DF93CDB7DEB7CA1BDB0B4D
:102780000FB6F894DEBF0FBECDBF09942A883988F2
:1027900048885F846E847D848C849B84AA84B984F9
:1027A000C884DF80EE80FD800C811B81AA81B98105
:1027B000CE0FD11D0FB6F894DEBF0FBECDBFED0119
:1027C000089510E0C2E6D0E004C0FE010E945A1154
:0C27D0002196C336D107C9F7F894FFCF5B
:1027DC00FFFFFFFF08090A0B0405060731323334EB
:1027EC003536373841424344454647480000C60514
:1027FC008000000040001400540000000000120192
:10280C008E00DB00B900CD005901000000005B0216
:10281C002B022302140206020502000000002A0605
:10282C008E00000000008A028E0000000000F704F9
:10283C00B70484042870727A796369736B692031E8
:10284C002D38290063686365737A2077796B6F6E16
:10285C0061632072756368005779626965727A20CA
:10286C00626965726B65206B746F72610070727A4D
:10287C00656D69657363696320626965726B650078
:10288C006B746F72652063686365737A0057796245
:10289C006965727A20706F6C65206E610063685494
:1028AC0061726765744669656C642076616C7565E8
:1028BC00206572726F72002870727A796369736B1B
:1028CC006920412D48290062006300660067007A88
:1028DC0072657365746F776163206772653F00433F
:1028EC007A792063686365737A002D3100407374C4
:1028FC00617274240040646F466972737449676F27
:10290C00724D6F7665240041726475696E6F206933
:10291C00732072656164792E0049676F7248617328
:10292C00456E6465644D6F766500636F6E6E6563AE
:10293C00746564005475726E206F6E204149206975
:10294C006E20636F726500436F6E6E6563746564B1
:10295C0020746F20636F72650073746172746564A8
:10296C0000726F7A7061637A6163206772650057D9
:10297C006369736E696A2073746172742C2061626E
:10298C0079004241445F4D4F564500706F6E6F7732
:10299C006E69650072756368752E205770726F775B
:1029AC0061647A2072756368004E69657072617734
:1029BC0069646C6F7779207479700070726F6D6FC9
:1029CC00746500632D676F6E6965632C20642D68D8
:1029DC0065746D616E00612D7769657A612C20627A
:1029EC002D736B6F637A656B2C0050727A656D6911
:1029FC00616E61206E613A0050726F6D6F636A6137
:102A0C002070696F6E612E00406563686F3A20001C
:102A1C0030007769657A6500736B6F637A6B610060
:102A2C00676F6E6361006865746D616E61007072D2
:102A3C007A796369736B69656D205759534C494AB0
:102A4C0000506F7477696572647A2070726F6D6F65
:102A5C00636A65006C756220706F707261773A20E2
:102A6C005759435A59534300506F747769657264D0
:102A7C007A3A205759534C494A2C007A20706F6C83
:102A8C00612000206E61200043686365737A2077B3
:0C2A9C00796B6F6E6163207275636800D7
:00000001FF
