:100000000C9491000C94B9000C94B9000C94B900B4
:100010000C94B9000C94B9000C94B9000C94B9007C
:100020000C94B9000C94B9000C94B9000C94B9006C
:100030000C94B9000C94B9000C94B9000C94B9005C
:100040000C94930C0C94B9000C94830B0C945D0BE2
:100050000C94B9000C94B9000C94B9000C94B9003C
:100060000C94E3010C94B90080058305860589058D
:100070008C058F05920595050E0623063F0648065A
:100080004B06720675068A06FE064F076407790757
:100090008E07A307B807EA0743080F087212131068
:1000A000231028105E109A10D61012113E1126103F
:1000B0004111C811C811C811DA1104122312071214
:1000C0002A12311200000000240027002A0000003C
:1000D0000000250028002B0000000000230026005F
:1000E00029000404040404040404020202020202BB
:1000F00003030303030301020408102040800102EC
:10010000040810200102040810200000000800026A
:100110000100000304070000000000000000541369
:100120007E0E11241FBECFEFD8E0DEBFCDBF15E09D
:10013000A0E0B1E0E0E9FDE202C005900D92A83731
:10014000B107D9F727E0A8E7B5E001C01D92A936AD
:10015000B207E1F710E0C0E9D0E004C02197FE014A
:100160000E942914CF38D107C9F70E94920E0C942F
:10017000BB160C94000085ED8093BC008091BC0000
:1001800084FDFCCF1092C305089540919C05262F55
:1001900030E0240F311D21323105DCF42091C305FC
:1001A0002430C9F4FC0180E090E0861758F43091C7
:1001B0009C052191DC01A658BA4FA30FB11D2C93C9
:1001C0000196F3CF80919C05680F60939C0580E0B9
:1001D000089581E0089582E00895089581E090E017
:1001E0003091C7052091C605321710F480E090E0E9
:1001F00091958195910908958091C7059091C605C3
:10020000891730F48F5F8093C70580E090E00895F0
:100210008FEF9FEF08958091C60590E02091C7056C
:10022000821B91090895CF92DF92EF92FF920F9374
:100230001F93CF93DF937C01262F972F8A01809104
:10024000F805882391F0C62FD72F6E01C40ED51E56
:10025000CC15DD0571F06991D701ED91FC9101900C
:10026000F081E02DC7010995F3CF642F822F0E9402
:10027000C500C801DF91CF911F910F91FF90EF90C2
:10028000DF90CF900895CF93DF931F92CDB7DEB765
:1002900069832091F8052223D1F02091C4052032F2
:1002A00040F021E030E0FC013383228380E090E0E5
:1002B00015C08091C505E82FF0E0E750FA4F99810D
:1002C00090838F5F8093C5058093C40505C061E06E
:1002D000CE0101960E94C50081E090E00F90DF9171
:1002E000CF910895862F642F0C94E10B862F642FF5
:1002F0000C94110C882351F0611111C064E170E07D
:1003000080E090E00E944D0C61E009C0662339F066
:1003100064E170E080E090E00E944D0C60E0862F88
:100320000895CF92DF92EF92FF920F931F93CF9396
:10033000DF936C017B018A01E9010E94150EB60171
:100340008CEC96E00E944F0B81E00E94E70DB70114
:100350008CEC96E00E944F0B82E00E94E70DB80102
:100360008CEC96E00E944F0B83E00E94E70DBE01EB
:100370008CEC96E00E944F0B80E0DF91CF911F91B3
:100380000F91FF90EF90DF90CF900C94E70D0F93BB
:100390001F93CF93DF938C01EB010E94150EB801E0
:1003A0008CEC96E00E944F0B81E00E94E70DBE01AD
:1003B0008CEC96E00E944F0B80E0DF91CF911F9173
:1003C0000F910C94E70D1F920F920FB60F9211240C
:1003D0002F933F934F935F936F937F938F939F934D
:1003E000AF93BF93EF93FF938091B900887F8036DE
:1003F00009F49CC068F5883209F45BC090F4803140
:1004000009F454C038F4882309F4F6C0883009F49C
:100410004DC0F6C0883109F44CC0803209F45DC08B
:10042000EFC0803409F468C048F4803309F455C043
:10043000883309F0E5C08093F705D8C0803509F40A
:100440004FC0883509F45DC0883409F0D9C0D6C0E2
:10045000883909F4C7C0A8F4883709F467C038F4AC
:10046000883609F463C0803709F460C0C9C0883891
:1004700009F4B8C0803909F45FC0803809F0C0C001
:100480005BC0803B09F486C038F4803A09F466C04A
:10049000883A09F47FC0B4C0803C09F4A7C0883C06
:1004A00009F4A4C0883B09F48AC0AAC08091D4058D
:1004B00010C09091F6058091F505981770F5E091C0
:1004C000F60581E08E0F8093F605F0E0EB52FA4FCF
:1004D00080818093BB0085EC86C08093F7058EC039
:1004E000E091F60581E08E0F8093F6058091BB00C8
:1004F000F0E0EB52FA4F80839091F6058091F5057C
:100500006EC0E091F60581E08E0F8093F605809134
:10051000BB00F0E0EB52FA4F80838091C20581115D
:100520006DC081E08093C10584EA61C083E080935F
:10053000C3051092C005CFCF8091C005803208F06E
:1005400051C0E091C00581E08E0F8093C00580917D
:10055000BB00F0E0E056FA4F8083BDCF85EC80937E
:10056000BC001092C3058091C005803230F4E09148
:10057000C005F0E0E056FA4F10826091C00570E0CF
:10058000E0919E05F0919F0580EA95E00995109213
:10059000C00536C084E08093C30510929D0510927B
:1005A0009C05E0919A05F0919B05099580919C0529
:1005B000811105C081E080939C0510927A05E0913D
:1005C0009D0581E08E0F80939D05F0E0E658FA4F7F
:1005D00080818093BB0090919D0580919C05981728
:1005E00008F479CF85E88093BC000AC085EC80933D
:1005F000BC001092C30504C01092F7050E94BB0016
:10060000FF91EF91BF91AF919F918F917F916F91EA
:100610005F914F913F912F910F900FBE0F901F90C0
:1006200018950F931F93CF93DF93CDB7DEB76897DD
:100630000FB6F894DEBF0FBECDBF8C0164EE72E042
:10064000CE0101960E943A0B8091CF0581117DC0A9
:100650000330110519F466E671E069C0093011052F
:1006600009F040C060910001709101014AE0CE01A3
:1006700043960E94050B60910201709103014AE0CC
:10068000CE010D960E94050B68E771E0CE0107963A
:100690000E943A0B6AEE76E0CE0107960E94860A27
:1006A000BE01635F7F4F0E94860A64EE76E00E947F
:1006B000860ABE016D5E7F4F0E94860A6CEC74E074
:1006C0000E946D0ABC01CE0101960E94B00ACE01C3
:1006D00007960E94000BCE010D960E94000BCE01E2
:1006E00043961AC000311105D1F46FE771E0CE01D5
:1006F00007960E943A0B6EED76E0CE0107960E94B7
:10070000860A6CEC74E00E946D0ABC01CE01019671
:100710000E94B00ACE0107960E94000B0CC0013166
:10072000110519F46BE871E002C063E971E0CE01D4
:1007300001960E94990ABE016F5F7F4F83E296E0A7
:100740000E944F0B81E08093CF05CE0101960E945D
:10075000000B68960FB6F894DEBF0FBECDBFDF91D9
:10076000CF911F910F9108956BEB71E08AEE96E0A7
:100770000E94990A6BEB71E084EE96E00E94990A60
:100780008FEF9FEF909303018093020190930101FB
:10079000809300016BEB71E08EED96E00E94990A68
:1007A0006BEB71E088ED96E00C94990A6F927F9262
:1007B0008F929F92AF92BF92CF92DF92EF92FF9271
:1007C0000F931F93CF93DF93162FD42FC22F88231D
:1007D00079F08BE00E94B50B31E0892B09F430E011
:1007E0003093CB05632F832F0E947A018093CE052F
:1007F000112379F08CE00E94B50B31E0892B09F4CC
:1008000030E03093CA05632F832F0E947A018093D2
:10081000CC05DD2379F08DE00E94B50B31E0892B0A
:1008200009F430E03093C905632F832F0E947A01C9
:100830008093CD05C11105C0011103C0EE2009F45C
:100840002FC181E080935C070E94870C00914C07C8
:1008500010914D0720914E0730914F07AB01BC011D
:10086000401B510B620B730B8091580790915907F5
:10087000A0E0B0E084179507A607B70708F00BC102
:10088000C0E080915607C81760F4E0915207F091DC
:100890005307EC0FF11D62E080810E94110CCF5FC5
:1008A000F0CF712C812C912C5401839480915707A7
:1008B000781608F05FC0072D10E0E0915407F09122
:1008C0005507E00FF11F61E080810E94110CE0915B
:1008D0005407F0915507E00FF11F60E080810E94FE
:1008E000E10BD501C401072C04C0880F991FAA1F72
:1008F000BB1F0A94D2F76C017C01E094F094612C48
:10090000809156076816F8F4C62DD0E0E0915207A2
:10091000F0915307EC0FFD1F80810E94B50B2496C8
:10092000CC0FDD1FC051D94F892B29F488819981C3
:100930008C299D2904C0888199818E219F219983CA
:1009400088836394DDCFE0915407F0915507E00F61
:10095000F11F61E080810E94E10B8091540790912A
:100960005507FC01E00FF11F60E080810E94110C2F
:1009700073949CCFECE0F7E08FEF9FEF23813481FD
:10098000232B21F41082928381831582369627E0EF
:10099000E834F20799F710E096E0F92E80915607B7
:1009A000181708F052C000E0C12FD0E0CC0FDD1FB7
:1009B000C850D94F20915707021708F044C06881EA
:1009C0007981002E02C0769567950A94E2F76170EE
:1009D0007727129F90011124200F311DE0915007BD
:1009E000F0915107E20FF31F4081E0EFF6E080E065
:1009F000A58DB68DA217B30711F461701AC08F5F71
:100A000036968A30A9F7672BE1F0ECE0F7E080E05A
:100A100090E05081511110C0F89EF001F99EF00D48
:100A20001124E051F94F448F368F258F10A2178E75
:100A300061E00E94200E05C0019636968A3091052D
:100A400041F70F5FB7CF1F5FA9CF80E090E0C0E014
:100A5000FC01E051F94F21A12111C1E006968C3330
:100A60009105B1F70E94870C60934C0770934D0776
:100A700080934E0790934F07CC2369F08091110724
:100A8000882349F080910F0790911007019719F47E
:100A900080910C0703C010925C0780E08093C8052A
:100AA000DF91CF911F910F91FF90EF90DF90CF904A
:100AB000BF90AF909F908F907F906F9008950F930D
:100AC0001F93CF93DF9300D000D000D0CDB7DEB717
:100AD0008C016BEB71E0CE0101960E943A0BE09124
:100AE000C8054E2FEE0F550B660B770BFA01E1563A
:100AF000F109E830F105F8F4EC5CFF4F0C9429148F
:100B000060EE74E014C06EEB71E011C060EC71E057
:100B10000EC06DEF74E00BC06AE274E008C062ECD6
:100B200071E005C064EC71E002C064ED72E0CE01DA
:100B300001960E94990A6BEB71E0CE0101960E942A
:100B4000200A882331F06BEB71E0C8010E943A0B58
:100B50000DC0F80111821082138212821582148254
:100B6000BE016F5F7F4FC8010E94C70ACE01019688
:100B70000E94000BC80126960FB6F894DEBF0FBE88
:100B8000CDBFDF91CF911F910F910895EF92FF920A
:100B90000F931F93CF93DF937C018B01EA010E9497
:100BA000150EB7018CEC96E00E944F0B81E00E947D
:100BB000E70DB8018CEC96E00E944F0B82E00E949A
:100BC000E70DBE018CEC96E00E944F0B80E0DF91B8
:100BD000CF911F910F91FF90EF900C94E70D0F9321
:100BE0001F93CF93DF93CDB7DEB7AA970FB6F894D4
:100BF000DEBF0FBECDBF8C01809178059091790545
:100C00008017910709F46BC2F8013197E231F105C1
:100C100008F042C2E45CFF4F0C94291466EC71E0CA
:100C2000CE0101960E943A0B0E94150EBE016F5F25
:100C30007F4F8CEC96E00E944F0B80E00E94E70D06
:100C4000CE01019619C068ED71E0CE0107960E94B1
:100C50003A0B66EE71E0CE0101960E943A0BBE019E
:100C6000695F7F4FCE0101960E94C701CE010196B8
:100C70000E94000BCE0107960E94000B30C269EF64
:100C800071E0CE0107960E943A0B6AE072E0E3CF72
:100C90006AE172E002C063E572E0CE010D960E9447
:100CA0003A0B6AE272E0CE0107960E943A0B6EE3BD
:100CB00072E0CE0101960E943A0BAE01435F5F4F96
:100CC000BE01695F7F4FCE0101960E94C605CE012D
:100CD00001960E94000BCE0107960E94000BCE01E8
:100CE0000D96CACF6AE172E002C063E572E0CE0100
:100CF00043960E943A0B63E672E0CE010D960E9485
:100D00003A0B66E772E0CE0107960E943A0B63E861
:100D100072E099C163E972E0CE0185960E943A0BB8
:100D200067EA72E0CE014F960E943A0B6091000193
:100D3000709101014AE0CE0143960E94050B60913B
:100D40000201709103014AE0CE010D960E94050B4D
:100D50006AEB72E0CE0107960E943A0B6AEE76E0EB
:100D6000CE0107960E94860ABE01635F7F4F0E94F4
:100D7000860A65E374E00E946D0A64EE76E00E94E4
:100D8000860ABE016D5E7F4F0E94860A61EF73E0A6
:100D90000E946D0ABC01CE0149960E94310B62ECA3
:100DA00072E0CE0101960E943A0B9E012B5D3F4FEF
:100DB000AE01415E5F4FBE01675E7F4FCE0101967F
:100DC0000E949101CE0101960E94000BCE0149962E
:100DD0000E94000BCE0107960E94000BCE010D96DB
:100DE0000E94000BCE0143960E94000BCE014F964D
:100DF0000E94000BCE0185960E94000B69EF71E006
:100E0000CE0149960E943A0B609100017091010158
:100E10004AE0CE010D960E94050B6091020170918F
:100E200003014AE0CE0107960E94050B66ED72E0D1
:100E3000CE0101960E943A0B6AEE76E0CE01019651
:100E40000E94860ABE01695F7F4F0E94860A64EE97
:100E500076E00E94860ABE01635F7F4F0E94860A89
:100E6000BC01CE0143960E94310BBE01675E7F4FED
:100E7000CE0143960E94C701CE0143960E94000B0B
:100E8000CE0101960E94000BCE0107960E94000B36
:100E9000CE010D960E94000BCE014996EDCE6AE17F
:100EA00072E0CE0143960E943A0B6AE272E0CE01F4
:100EB0000D960E943A0B6EE372E0CE0107960E94F7
:100EC0003A0B65EE72E0BFC069EF72E0CE01439667
:100ED0000E943A0B6CE073E0CE010D960E943A0B33
:100EE00060E273E0CE0107960E943A0B6EE273E077
:100EF000AAC06EE373E0CE0143960E943A0B61E50F
:100F000073E0CE010D960E943A0B66E673E0CE01C7
:100F100007960E943A0B6BE773E095C06EE373E0AF
:100F2000CE0143960E943A0B6FE873E0CE010D9616
:100F30000E943A0B64EA73E0CE0107960E943A0BD6
:100F400069EB73E080C061E473E0CE0143960E94D8
:100F50003A0B6DEC73E0CE010D960E943A0B6FEDEB
:100F600073E0CE0107960E943A0B63EF73E06BC00B
:100F700066E074E0CE0143960E943A0B66E374E0AB
:100F8000CE0107960E943A0B68ED76E0CE010796F7
:100F90000E94860ABC01CE010D960E94310B69E1C8
:100FA00074E0CE0101960E943A0BAE014D5E5F4F98
:100FB000BE01635F7F4FCE0101960E94C605CE0140
:100FC00001960E94000BCE010D960E94000BCE01EF
:100FD000079654C06CE274E0CE0107960E943A0B6B
:100FE00068ED76E0CE0107960E94860ABC01CE012C
:100FF0000D960E94310B6AE374E0CE0101960E94C7
:101000003A0BBE01635F7F4FCE0101960E94C7017C
:10101000CE0101960E94000BCE010D9629CE66E40A
:1010200074E0CE0143960E943A0B67EA72E0CE016B
:101030000D960E943A0B6AE574E0CE0107960E9475
:101040003A0B6AE674E0CE0101960E943A0B9E01CB
:101050002D5E3F4FAE01435F5F4FBE01695F7F4F23
:10106000CE0101960E949101CE0101960E94000BD3
:10107000CE0107960E94000BCE010D960E94000B38
:10108000CE014396F9CD69EF71E0CE0107960E943B
:101090003A0B65E774E0DFCD66E874E0CE010796B1
:1010A0000E943A0B6AE974E0CE0101960E943A0B65
:1010B000BE01695F7F4FCE0101960E94C701CE013C
:1010C00001960E94000BCE0107960E94000B44E29D
:1010D00050E069EA74E083E296E00E947F08109392
:1010E000790500937805AA960FB6F894DEBF0FBE77
:1010F000CDBFDF91CF911F910F9108950895CF92A9
:10110000DF92EF92FF920F931F93CF93DF936C01C7
:101110007A018B01C0E0D0E0CE15DF0589F0D8015F
:101120006D918D01D601ED91FC910190F081E02D42
:10113000C6010995892B11F47E0102C02196ECCFDE
:10114000C701DF91CF911F910F91FF90EF90DF903A
:10115000CF900895FC01918D828D981761F0828D5A
:10116000DF01A80FB11D5D968C91928D9F5F9F73DB
:10117000928F90E008958FEF9FEF0895FC01918D7D
:10118000828D981731F0828DE80FF11D858D90E0EA
:1011900008958FEF9FEF0895FC01918D228D892F87
:1011A00090E0805C9F4F821B91098F73992708956F
:1011B00083E296E00E94CC0821E0892B09F420E02C
:1011C000822F0895FC01848DDF01A80FB11DA35A61
:1011D000BF4F2C91848D90E001968F739927848F57
:1011E000A689B7892C93A089B1898C9180648C934E
:1011F000938D848D981306C00288F389E02D808139
:101200008F7D80830895EF92FF920F931F93CF936A
:10121000DF93EC0181E0888F9B8D8C8D981305C046
:10122000E889F989808185FD24C0F62E0B8D10E0B8
:101230000F5F1F4F0F731127E02E8C8DE8120CC02B
:101240000FB607FCFACFE889F989808185FFF5CFD1
:10125000CE010E94E208F1CF8B8DFE01E80FF11D57
:10126000E35AFF4FF0820B8FEA89FB89808180620D
:1012700007C0EE89FF896083E889F98980818064ED
:10128000808381E090E0DF91CF911F910F91FF90DB
:10129000EF900895CF93DF93EC01888D8823C9F0F8
:1012A000EA89FB89808185FD05C0A889B9898C916F
:1012B00086FD0FC00FB607FCF5CF808185FFF2CF0A
:1012C000A889B9898C9185FFEDCFCE010E94E208F3
:1012D000E7CFDF91CF91089580E090E0892B29F04E
:1012E0000E94D80881110C9400000895833081F089
:1012F00028F4813099F08230A1F008958730A9F068
:101300008830B9F08430D1F4809180008F7D03C0A3
:10131000809180008F7780938000089584B58F77C7
:1013200002C084B58F7D84BD08958091B0008F7711
:1013300003C08091B0008F7D8093B00008953FB7C7
:10134000F89480911F0690912006A0912106B091FB
:10135000220626B5A89B05C02F3F19F00196A11DB6
:10136000B11D3FBFBA2FA92F982F8827820F911D3B
:10137000A11DB11DBC01CD0142E0660F771F881F82
:10138000991F4A95D1F708950E942616CF93DF93AF
:10139000EC0188819981009711F00E94C414198290
:1013A00018821D821C821B821A82DF91CF910895C0
:1013B0000F931F93CF93DF93EC018881998100975E
:1013C00029F02A813B812617370788F48B016F5F4C
:1013D0007F4F0E945C15009761F0998388831B837F
:1013E0000A832C813D81232B11F4FC01108281E0C2
:1013F00001C080E0DF91CF911F910F910895EF928E
:10140000FF920F931F93CF93DF93EC017B018A012F
:10141000BA010E94D809811104C0CE010E94C609F8
:1014200007C01D830C83B701888199810E943D16F6
:10143000CE01DF91CF911F910F91FF90EF90089512
:10144000FC0124813581232B31F421E061157105E4
:10145000A1F0FB0108C0FC0180819181611571053B
:1014600031F421E0FC018081882339F005C00E941D
:10147000341621E0892B09F020E0822F0895EF92A5
:10148000FF920F931F93CF93DF93FC01248135814B
:101490006115710511F480E019C041155105A9F0DD
:1014A0007B01EC018A01020F131FB8010E94D809C9
:1014B000882389F3288139818C819D81B701820F2E
:1014C000931F0E943D161D830C8381E0DF91CF9115
:1014D0001F910F91FF90EF900895CF93DF93EC0150
:1014E0006115710561F0FB0101900020E9F731976A
:1014F000AF01461B570B0E943F0A811103C0CE016A
:101500000E94C609CE01DF91CF910895CF93DF935A
:10151000EC01FB0144815581608171810E943F0A89
:10152000811103C0CE010E94C609CE01DF91CF9187
:101530000895CF93DF93EC016115710559F0FB011C
:1015400001900020E9F73197AF01461B570B0E942D
:10155000FF0902C00E94C609CE01DF91CF91089514
:10156000CF93DF93EC01FB018617970761F0608151
:1015700071816115710529F0448155810E94FF092F
:1015800002C00E94C609CE01DF91CF9108950F934A
:101590001F93CF93DF938C01EB01FC01808191813C
:1015A0000097B1F0688179816115710579F0428108
:1015B00053812C813D814217530740F00E943D1614
:1015C0008C819D81F8019583848313C00E94C4148B
:1015D00088819981F801918380838A819B8193839B
:1015E00082838C819D8195838483198218821B82DA
:1015F0001A821D821C82DF91CF911F910F91089555
:10160000FC01808191810C94C4140F931F93CF939C
:10161000DF93CDB7DEB762970FB6F894DEBF0FBE8B
:10162000CDBF8C01CB01F80111821082138212828E
:101630001582148250E0BE016F5F7F4F0E944416F6
:10164000BE016F5F7F4FC8010E94990A62960FB674
:10165000F894DEBF0FBECDBFDF91CF911F910F91E8
:101660000895FC0111821082138212821582148265
:101670000C94B00AFC01118210821382128215822E
:1016800014826115710551F0FB0101900020E9F70A
:101690003197AF01461B570B0C94FF090895DC01ED
:1016A000ED91FC91DB0114964D915C9115976D9134
:1016B0007C910280F381E02D09941F920F920FB666
:1016C0000F9211242F933F934F935F936F937F93C8
:1016D0008F939F93AF93BF93EF93FF9383E296E033
:1016E0000E94E208FF91EF91BF91AF919F918F917E
:1016F0007F916F915F914F913F912F910F900FBE0E
:101700000F901F9018951F920F920FB60F921124F1
:101710002F938F939F93EF93FF93E0913306F09174
:1017200034068081E0913906F0913A0682FD12C0BC
:10173000908180913C068F5F8F7320913D068217C8
:1017400051F0E0913C06F0E0ED5DF94F958F80930C
:101750003C0601C08081FF91EF919F918F912F9165
:101760000F900FBE0F901F901895CF93DF93282FE7
:1017700030E0F901E65FFE4F8491F901EA50FF4F36
:10178000D491F901EE51FF4FC491CC2391F0811116
:101790000E947609EC2FF0E0EE0FFF1FE852FF4F9A
:1017A000A591B491EC91ED2381E090E021F480E0EB
:1017B00002C080E090E0DF91CF910895862F0C94D5
:1017C000B50B1F93CF93DF93282F30E0F901E65F2D
:1017D000FE4F8491F901EA50FF4FD491F901EE5187
:1017E000FF4FC491CC23C9F0162F81110E947609B6
:1017F000EC2FF0E0EE0FFF1FE253FF4FA591B491E5
:101800008FB7F894111105C09C91ED2FE095E92355
:1018100002C0EC91ED2BEC938FBFDF91CF911F9124
:101820000895CF93DF9390E0FC01EA50FF4F24919D
:10183000FC01EE51FF4F8491882361F190E0880F05
:10184000991FFC01EC53FF4FC591D491FC01E25369
:10185000FF4FA591B491611109C09FB7F894888199
:10186000209582238883EC912E230BC0623061F493
:101870009FB7F8943881822F809583238883EC91D9
:101880002E2B2C939FBF06C08FB7F894E8812E2B88
:1018900028838FBFDF91CF9108958F929F92AF924F
:1018A000BF92CF92DF92EF92FF926B017C010E9478
:1018B0009F094B015C01C114D104E104F104F1F072
:1018C0000E949F09DC01CB0188199909AA09BB096B
:1018D000883E9340A105B10570F321E0C21AD108FA
:1018E000E108F10888EE880E83E0981EA11CB11C67
:1018F000C114D104E104F10419F7DDCFFF90EF909A
:10190000DF90CF90BF90AF909F908F9008952FB7AA
:10191000F89460911B0670911C0680911D069091B1
:101920001E062FBF08951F920F920FB60F9211241B
:101930002F933F938F939F93AF93BF9380911B06F9
:1019400090911C06A0911D06B0911E0630911A06BA
:1019500023E0230F2D3720F40196A11DB11D05C0F2
:1019600026E8230F0296A11DB11D20931A0680932D
:101970001B0690931C06A0931D06B0931E06809133
:101980001F0690912006A0912106B0912206019693
:10199000A11DB11D80931F0690932006A0932106E0
:1019A000B0932206BF91AF919F918F913F912F915C
:1019B0000F900FBE0F901F901895CF93FC01C4811C
:1019C00021E02093F805C09319061092C5051092E6
:1019D000C4058385682B80EC96E00E9443018091CA
:1019E000C405813208F046C09091C3059111FCCF27
:1019F00092E09093C30591E09093C2059FEF90937E
:101A0000F7051092F6058093F505A9EFB5E025EDF1
:101A100035E0F9019E2F921B981718F49D91919330
:101A2000F9CF1092D4058091D405CC0FC82BC09368
:101A3000D4058091C105813061F41092C105809177
:101A4000D4058093BB008091BC0083FDF8CF85EC6A
:101A500001C085EE8093BC008091C3058230E1F324
:101A60008091F7058F3F31F08091F705803211F0BA
:101A70008091F7051092C5051092C4051092F805E3
:101A8000CF9108950F931F93CF938C01C62F0E947F
:101A9000DD0C6C2F6460C8010E94DD0C6C2F6B7F25
:101AA000C8010E94DD0C83EC90E00197F1F7CF9123
:101AB0001F910F910895FF920F931F93CF93DF9380
:101AC0001F92CDB7DEB78C01F62E962F907F692F2F
:101AD000642BC80149830E94420D80E1F89EB00149
:101AE00011244981642BC8010F90DF91CF911F9180
:101AF0000F91FF900C94420D41E00E945B0D81E03C
:101B000090E0089596E0899FD0011124A051B94F2B
:101B100090967C936E935F9791E091969C939197AA
:101B200090915C07E0915D07F0915E07992339F091
:101B3000309751F0811108C080910C0704C0309794
:101B400019F05C968C9109940895DF92EF92FF92C0
:101B50000F931F93CF93DF937C018B01EA0146170C
:101B6000570720F4812F8A01C62FD82F64EE72E028
:101B7000C7010E943A0B8091630790916407081790
:101B80001907E0F48C179D0708F4EC01E0915F075A
:101B9000F0916007EC0FFD1FD080108260915F070D
:101BA00070916007600F711FC7010E94990AE09150
:101BB0005F07F0916007EC0FFD1FD082C701DF9136
:101BC000CF911F910F91FF90EF90DF900895CF93E9
:101BD000DF93CDB7DEB728970FB6F894DEBF0FBE00
:101BE000CDBF98E0ECE2F1E0DE01119601900D929C
:101BF0009A95E1F79091D406981710F48FEF890F1A
:101C0000FE013196E80FF11DE80FF11D608160685B
:101C100040E08CEC96E028960FB6F894DEBF0FBE3D
:101C2000CDBFDF91CF910C945B0D40E061E08CEC77
:101C300096E00E945B0D8BE39FE10197F1F7089519
:101C40000F931F93CF93DF93C82FD62F86E0C89FA3
:101C5000F0011124E051F94F11A2878D90A181303C
:101C60009105F1F01CF4892B49F043C082309105B5
:101C7000A9F10397F1F560E070E034C06623C9F183
:101C800061E070E08C2F0E94820D0E94870C6093AF
:101C900048077093490780934A0790934B0729C0E0
:101CA0000E94870C009148071091490720914A072C
:101CB00030914B07AB01BC01401B510B620B730B06
:101CC00080915A0790915B07A0E0B0E084179507D8
:101CD000A607B70718F462E070E004C0D11109C08C
:101CE00063E070E08C2FDF91CF911F910F910C94E6
:101CF000820DDF91CF911F910F91089588ED96E0AD
:101D00000E94000B8EED96E00E94000B84EE96E0A0
:101D10000E94000B8AEE96E00E94000B8FE597E090
:101D20000C94000BCF93DF93CDB7DEB762970FB65D
:101D3000F894DEBF0FBECDBF789484B5826084BDB9
:101D400084B5816084BD85B5826085BD85B58160BF
:101D500085BD80916E00816080936E00109281003D
:101D600080918100826080938100809181008160F8
:101D700080938100809180008160809380008091B9
:101D8000B10084608093B1008091B0008160809345
:101D9000B00080917A00846080937A0080917A000C
:101DA000826080937A0080917A00816080937A00CB
:101DB00080917A00806880937A001092C100E0914F
:101DC0003306F091340682E08083E0912F06F09193
:101DD00030061082E0913106F09132068FEC80835C
:101DE00010923B06E0913706F091380686E080833A
:101DF000E0913506F0913606808180618083E09124
:101E00003506F0913606808188608083E091350642
:101E1000F0913606808180688083E0913506F091EC
:101E2000360680818F7D808361E081E00E94110C05
:101E300061E081E00E94110C61E081E00E94110CE0
:101E400061E081E00E94110C61E081E00E94110CD0
:101E500061E081E00E94110C61E08AE00E94110CB7
:101E600060E08BE00E94110C60E08CE00E94110C9D
:101E700060E08DE00E94110C60E081E00E94E10BC7
:101E800060E081E00E94E10B60E081E00E94E10BF4
:101E900060E081E00E94E10B60E081E00E94E10BE4
:101EA00060E081E00E94E10B60E08AE00E94E10BCB
:101EB0001092C7051092C6051092C5051092C40570
:101EC0001092C30581E08093C2051092C10561E0C4
:101ED00082E10E94E10B61E083E10E94E10B8091CD
:101EE000B9008E7F8093B9008091B9008D7F809377
:101EF000B90088E48093B80085E48093BC00109218
:101F0000D1068091D606823018F098E09093D106E1
:101F10008093D40662E370E080E090E00E944D0C74
:101F20006091D7068CEC96E00E94DD0C68EE73E0C1
:101F300080E090E00E944D0C60E38CEC96E00E9403
:101F4000420D0BE416E4C8010197F1F760E38CEC55
:101F500096E00E94420DC8010197F1F760E38CEC16
:101F600096E00E94420D83E592E00197F1F760E26E
:101F70008CEC96E00E94420D6091D106606240E0D8
:101F80008CEC96E00E945B0D84E08093D20640E0EA
:101F90006CE08CEC96E00E945B0D0E94150E82E0D6
:101FA0008093D30640E066E08CEC96E00E945B0DE7
:101FB00040E062E08CEC96E00E945B0D8BE39FE1D9
:101FC0000197F1F788E08093D70660E08CEC96E00B
:101FD0000E94DD0C81E090E00E94EF058BE0882EEE
:101FE000912C94E0692E712C22E1C22ED12C32E08A
:101FF000432E512C43E1A42EB12C57E0252E312C39
:1020000080910401909105010E94EF05E091040187
:10201000F09105013197E431F10508F029C2E25B46
:10202000FF4F0C942914E12C00E020E040E060E038
:1020300081E00E94D6038091CE05882309F452C224
:1020400083E090E036C083E090E03EC20E94B4039B
:10205000E12C00E021E040E060E081E00E94D60356
:10206000CE0101960E945F05BE016F5F7F4F8AEE31
:1020700096E00E94C70ACE0101960E94000B809153
:10208000CE05882361F08091040190910501909321
:10209000D1058093D005D0920501C09204016BEB6D
:1020A00071E08AEE96E00E94200A81111BC285E051
:1020B00090E0909305018093040114C2E12C01E0AB
:1020C00020E041E060E081E00E94D603E091C80595
:1020D000E153E83050F4F0E0EC5DFE4F8081082ED3
:1020E000000C990B1816190614F08FEF9FEF9093C0
:1020F0000301809302012091CE05222361F02091FB
:102100000401309105013093D1052093D005D09280
:102110000501C09204012091CD05222321F0B09247
:102120000501A0920401181619060CF0DBC186E027
:1021300090E0BFCFE12C00E021E041E060E081E0F1
:102140000E94D603CE0101960E945F05BE016F5F1B
:102150007F4F84EE96E00E94C70ACE0101960E944E
:10216000000B8091CE05882361F08091040190914D
:1021700005019093D1058093D005D0920501C092BE
:1021800004018091CD05882321F0B0920501A09231
:1021900004016BEB71E084EE96E00E94200A81114D
:1021A000A1C130920501209204019CC1E12C01E003
:1021B00020E041E060E081E00E94D603E091C805A4
:1021C000E153E83050F4F0E0EC5DFE4F8081082EE2
:1021D000000C990B1816190614F08FEF9FEF9093CF
:1021E0000101809300012091CE05222361F020910E
:1021F0000401309105013093D1052093D005D09290
:102200000501C09204012091CD05222321F0B09256
:102210000501A0920401181619060CF063C188E0AC
:1022200090E047CFE12C00E020E041E061E081E078
:102230000E94D6038091CE05882361F0809104012D
:10224000909105019093D1058093D005D09205011E
:10225000C09204018091CC05882331F089E090E0A0
:1022600090930501809304018091CD05882309F4A2
:1022700039C1B0920501A092040134C189E090E017
:10228000E4C0EE24E39400E020E040E060E081E080
:102290000E94D6036BEB71E0CE0101960E943A0BCF
:1022A0008091C8058236C9F05CF4813659F56EEC30
:1022B00074E088ED96E00E94990A60EE74E01EC01A
:1022C0008336A1F08436F1F462EE74E088ED96E096
:1022D0000E94990A6DEF74E011C064ED74E088ED1E
:1022E00096E00E94990A6EEB71E008C06CED74E014
:1022F00088ED96E00E94990A60EC71E0CE010196AB
:102300000E94990A6BEB71E0CE0101960E94200AAF
:10231000882339F06BEB71E0CE0107960E943A0BEF
:102320000DC018861F821A8619861C861B86BE0160
:102330006F5F7F4FCE0107960E94C70ACE010196BC
:102340000E94000BBE01695F7F4F8EED96E00E94F8
:10235000C70ACE0107960E94000B8091CE05882304
:1023600061F080910401909105019093D1058093D3
:10237000D005D0920501C09204016BEB71E08EEDA7
:1023800096E00E94200A8111ADC08FE090E091CECE
:10239000E12C00E020E040E060E081E00E94D60314
:1023A0008091CE05882309F49DC05092050140928A
:1023B000040198C0E12C00E020E041E061E081E010
:1023C0000E94D6038091CE05882361F0809104019C
:1023D000909105019093D1058093D005D09205018D
:1023E000C09204018091CC05882331F080E190E017
:1023F00090930501809304018091CD05882309F411
:1024000071C084E190E055CE80E190E01EC0E12CE7
:1024100000E020E041E061E080E00E94D60380918E
:10242000CC05882331F081E190E090930501809301
:1024300004018091CD05882309F454C08091D00512
:102440009091D10536CE81E190E00E9411030E9467
:10245000B40348C00E94B403709205016092040165
:1024600041C00E94B40390920501809204013AC0D9
:102470006CE575E0CE0101960E943A0B6AEE74E0BD
:10248000CE0107960E943A0B6AE974E0CE010D96E0
:102490000E943A0BAE014F5F5F4FBE01695F7F4FF5
:1024A000CE010D960E94C605CE010D960E94000B2E
:1024B000CE0107960E94000BCE0101960E94000BF0
:1024C00080910401909105010E9411030BC0898342
:1024D0001A8241E050E0BE016F5F7F4F8FE597E0C9
:1024E0000E943F0A83E296E00E94CC081816190663
:1024F0005CF483E296E00E94AA088093D2058432BD
:1025000031F781E08093D3058091D305882309F4C6
:1025100042C067EF74E08FE597E00E94200A8823AD
:1025200029F050920501409204012BC06FEF74E036
:102530008FE597E00E94200A811130C060E175E0CC
:102540008FE597E00E94200A811128C048E050E002
:1025500060E070E0CE0101960E94A50D6EE675E088
:10256000CE0101960E94200A182FCE0101960E94EA
:10257000000B1123C1F08AE090E090930501809355
:1025800004011092D30564EE72E08FE597E00E949B
:10259000990A1092CF050E946C0932CD7092050104
:1025A00060920401EECF6BE175E08FE597E00E9449
:1025B000200A882329F09092050180920401E1CF3E
:1025C00048E050E060E070E0CE0101960E94A50D69
:1025D00063E275E0CE0101960E94200A182FCE0119
:1025E00001960E94000B1123D1F140916307509195
:1025F000640769E070E0CE0101960E94A50D6CE2CF
:1026000075E0CE0101960E94200A882319F08CE023
:1026100090E00AC066E375E0CE0101960E94200AB0
:10262000882339F08DE090E09093050180930401B8
:1026300013C060E475E0CE0101960E94200A882351
:1026400019F08EE090E0F0CF40E250E065E475E0F4
:1026500083E296E00E947F08CE01019622C066E6E2
:1026600075E0CE0101960E943A0B6FE577E0CE014E
:1026700001960E94860A6CEC74E00E946D0ABC010F
:10268000CE0107960E94310BCE0101960E94000BED
:10269000BE01695F7F4F83E296E00E944F0BCE013F
:1026A00007960E94000B6DCFCF93109226061092D2
:1026B000250688EE93E0A0E0B0E080932706909393
:1026C0002806A0932906B0932A0628E331E0309328
:1026D00024062093230625EC30E030933006209327
:1026E0002F0624EC30E0309332062093310620ECA4
:1026F00030E0309334062093330621EC30E0309301
:1027000036062093350622EC30E0309338062093CD
:10271000370626EC30E030933A06209339061092C3
:102720003C0610923D0610923E0610923F06109213
:10273000C3061092C2068093C4069093C506A09368
:10274000C606B093C70688E491E09093C1068093D3
:10275000C00664EE72E08FE597E00E943A0B10929B
:10276000F2061092F6061092F5061092F70680E631
:1027700091E09093F1068093F00680E090E0FC01F8
:10278000E051F94F148E10A2178E11A206968C33C9
:102790009105A9F78AE091E090935307809352073F
:1027A00086E091E09093550780935407C4E0C0936E
:1027B0005607C09357078EE091E09093510780939E
:1027C00050078AE090E0909359078093580784EF70
:1027D00091E090935B0780935A0710925E071092E6
:1027E0005D0710924C0710924D0710924E07109201
:1027F0004F0710925C076BEB71E08AEE96E00E9447
:102800003A0B6BEB71E084EE96E00E943A0B6BEBB7
:1028100071E08EED96E00E943A0B6BEB71E088ED73
:1028200096E00E943A0B1092CF061092CE0688E5F1
:1028300091E09093CD068093CC0687E28093D006FA
:1028400084E18093D506C093D6061092D706CF9127
:102850000895EE0FFF1F0590F491E02D0994CF939A
:10286000DF938230910510F482E090E0E0916707F9
:10287000F091680720E030E0C0E0D0E0309711F13F
:102880004081518148175907C0F04817590761F432
:1028900082819381209719F09B838A832BC0909328
:1028A00068078093670726C02115310519F0421784
:1028B000530718F49A01BE01DF01EF010280F38192
:1028C000E02DDCCF2115310509F1281B390B24300F
:1028D000310590F412968D919C91139761157105B5
:1028E00021F0FB019383828304C090936807809357
:1028F0006707FD01329644C0FD01E20FF31F81938B
:102900009193225031092D933C933AC02091650751
:1029100030916607232B41F4209120013091210151
:10292000309366072093650720911E0130911F01A7
:102930002115310541F42DB73EB740912201509148
:102940002301241B350BE0916507F0916607E21720
:10295000F307A0F42E1B3F0B2817390778F0AC01C2
:102960004E5F5F4F2417350748F04E0F5F1F50939F
:102970006607409365078193919302C0E0E0F0E021
:10298000CF01DF91CF9108950F931F93CF93DF93E2
:10299000009709F48CC0FC013297138212820091D7
:1029A0006707109168070115110581F420813181B5
:1029B000820F931F2091650730916607281739070A
:1029C00079F5F0936607E093650771C0D80140E0A0
:1029D00050E0AE17BF0750F412962D913C9113971B
:1029E000AD012115310509F1D901F3CF9D01DA01BE
:1029F0003383228360817181860F971F821793072B
:102A000069F4EC0128813981260F371F2E5F3F4F73
:102A1000318320838A819B8193838283452B29F490
:102A2000F0936807E093670742C01396FC93EE9318
:102A30001297ED01499159919E01240F351FE2171C
:102A4000F30771F480819181840F951F029611968E
:102A50009C938E938281938113969C938E9312976D
:102A6000E0E0F0E0D80112968D919C9113970097C9
:102A700019F0F8018C01F6CF8D919C9198012E5F91
:102A80003F4F820F931F20916507309166072817EB
:102A9000390769F4309729F4109268071092670794
:102AA00002C0138212821093660700936507DF91BC
:102AB000CF911F910F910895A0E0B0E0E2E6F5E11B
:102AC0000C948816EC01009721F4CB010E942F147E
:102AD000B8C0FC01E60FF71F9C0122503109E21734
:102AE000F30708F4ACC0D9010D911C91119706179A
:102AF0001707B0F00530110508F49FC0C80104970E
:102B00008617970708F499C002501109061B170B86
:102B1000019311936D937C93CF010E94C4148DC0D7
:102B20005B01A01AB10A4C01800E911EA0916707AB
:102B3000B091680740E050E0E12CF12C109709F4C7
:102B40004AC0A815B905D1F56D907C901197630125
:102B500082E0C80ED11CCA14DB0480F1A3014A191B
:102B60005B096A0182E0C80ED11C1296BC901297D4
:102B70001396AC91B5E0CB16D10440F0B282A3839A
:102B800051834083D9016D937C930AC00E5F1F4F20
:102B9000C301800F911FF90191838083EB2DFA2FE0
:102BA000E114F10431F0D7011396FC93EE931297E0
:102BB00044C0F0936807E09367073FC08D919C91F4
:102BC00011974817590708F4AC017D0112960D9032
:102BD000BC91A02DB3CF80916507909166078815B1
:102BE0009905E1F446175707C8F480911E019091AA
:102BF0001F01009741F48DB79EB74091220150917B
:102C00002301841B950BE817F907C8F4F0936607B6
:102C1000E0936507F901718360830FC0CB010E94C7
:102C20002F147C01009759F0A801BE010E942B16B9
:102C3000CE010E94C414C70104C0CE0102C080E0CE
:102C400090E0CDB7DEB7EEE00C94A41681E090E002
:102C5000F8940C94BB16FB01DC0102C001900D92AC
:102C600041505040D8F70895FB01DC018D9101904F
:102C700080190110D9F3990B0895FB01DC01019033
:102C80000D920020E1F708954532510520F44230BD
:102C900010F00C944F16FB011082CB010895BB2756
:102CA0004A3031F4992322F4BDE2909581959F4FEB
:102CB0000C945B16BB27FB015527AA27880F991F89
:102CC000AA1FA41710F0A41B83955051B9F7A05D5B
:102CD000AA3308F0A95DA193009779F7B111B193D8
:102CE0001192CB010C947416DC01FC01672F7191D9
:102CF0007723E1F7329704C07C916D9370836291E2
:102D0000AE17BF07C8F308952F923F924F925F927C
:102D10006F927F928F929F92AF92BF92CF92DF92EB
:102D2000EF92FF920F931F93CF93DF93CDB7DEB750
:102D3000CA1BDB0B0FB6F894DEBF0FBECDBF0994E4
:102D40002A88398848885F846E847D848C849B843B
:102D5000AA84B984C884DF80EE80FD800C811B8149
:102D6000AA81B981CE0FD11D0FB6F894DEBF0FBE78
:102D7000CDBFED01089510E0C0E9D0E004C0FE0130
:102D80000E9429142196C139D107C9F7F894FFCFC1
:102D9000FFFFFFFF01000607080902030405616247
:102DA000636465666768313233343536373800001E
:102DB00069078000010203040506070800004000BF
:102DC000140054000000000003097F08CC08AA0882
:102DD000BE084A0900000000430113010B01FC007A
:102DE000EE00ED00000000007C0D7F0800000000F8
:102DF00076017201DE0B40646F4669727374496735
:102E00006F724D6F76652400406D6F7665200040CF
:102E100070726F6D6F7465546F20004072657365DA
:102E2000742400404552524F523A20556E6B6E6FDB
:102E3000776E2067616D65537461747573282920FE
:102E4000706172616D6574657224002D31006200DD
:102E500063006600670041726475696E6F20697374
:102E60002072656164792E00726F7A7061637A6195
:102E7000632067726500576369736E696A207374B3
:102E80006172742C206162790050726F737A6520D0
:102E9000637A656B61632E2E2E0047726120726F1C
:102EA0007A706F637A6574612E002870727A796324
:102EB00069736B6920412D48290063686365737AE3
:102EC0002077796B6F6E6163207275636800577944
:102ED000626965727A20626965726B65206B746FD6
:102EE0007261002870727A796369736B6920312D81
:102EF00038290070727A656D696573636963206251
:102F00006965726B65006B746F72652063686365D9
:102F1000737A005779626965727A20706F6C6520E8
:102F20006E61006C756220706F707261773A205725
:102F300059435A59534300506F7477696572647AE4
:102F40003A205759534C494A2C007A20706F6C61D3
:102F5000200043686365737A2077796B6F6E6163D5
:102F60002072756368005779736C616E6F2072759B
:102F700063683A20004E69657072617769646C6FAE
:102F8000777920727563682100632D676F6E6965BC
:102F9000632C20642D6865746D616E00612D776906
:102FA000657A612C20622D736B6F637A656B2C00E0
:102FB00050727A656D69616E61206E613A0050727F
:102FC0006F6D6F636A612070696F6E612E00627948
:102FD000207A61637A6163206E6F77612067726522
:102FE000006269616C652E20576369736E696A209F
:102FF0005354415254007363696520777967726155
:103000006C2049676F722C20746A004B6F6E696583
:1030100063206772792E204F637A7977692D006774
:1030200072616C792E20576369736E696A205354FC
:10303000415254006E696563206772793A20637A61
:1030400061726E652077792D00435249544943419E
:103050004C204552524F523A204B6F2D0057636916
:10306000736E696A2053544152542C206279005285
:10307000656D69732E205245424F4F54494E472E7D
:103080002E2E004552524F523A204B6F6E696563A7
:10309000206772793A0070727A796369736B696537
:1030A0006D205759534C494A00506F7477696572C7
:1030B000647A2070726F6D6F636A650070726F6DF5
:1030C0006F77616E79206E61200050696F6E207A93
:1030D0006F7374616C006C756220616E756C756ADB
:1030E0003A205759435A595343007A7265736574AD
:1030F0006F776163206772653F00437A7920636868
:103100006365737A0052657365746F77616E696584
:10311000206772792E007072696E744C636420703F
:103120006172616D657465722E004552524F523A5C
:1031300020556E6B6E6F776E00404552524F523A7B
:1031400020556E6B6E6F776E207072696E744C6373
:103150006420706172616D657465722E24007769F8
:10316000657A6500736B6F637A6B6100676F6E637E
:1031700061006865746D616E610067616D655374AF
:1031800061747573282900737461727465640049F1
:10319000676F72486173456E6465644D6F76650054
:1031A00050726F6D6F746564546F0070726F6D6FE5
:1031B00074650047616D654F766572007768697464
:1031C000655F776F6E00626C61636B5F776F6E0037
:1031D00064726177004552524F523A2077726F6E97
:1031E000672073747257686F576F6E2070617261D9
:1031F0006D6574657200406563686F3A20004241F6
:08320000445F4D4F56450000EC
:00000001FF
